{
  "contractName": "Auction",
  "abi": [
    {
      "inputs": [],
      "stateMutability": "nonpayable",
      "type": "constructor"
    },
    {
      "anonymous": false,
      "inputs": [
        {
          "indexed": true,
          "internalType": "string",
          "name": "title",
          "type": "string"
        },
        {
          "indexed": true,
          "internalType": "uint256",
          "name": "amount",
          "type": "uint256"
        }
      ],
      "name": "LogBidPlaced",
      "type": "event"
    },
    {
      "anonymous": false,
      "inputs": [
        {
          "indexed": true,
          "internalType": "string",
          "name": "title",
          "type": "string"
        },
        {
          "indexed": true,
          "internalType": "uint256",
          "name": "basePrice",
          "type": "uint256"
        }
      ],
      "name": "LogItemAdded",
      "type": "event"
    },
    {
      "inputs": [
        {
          "internalType": "uint256",
          "name": "",
          "type": "uint256"
        }
      ],
      "name": "catalogue",
      "outputs": [
        {
          "internalType": "uint256",
          "name": "itemId",
          "type": "uint256"
        },
        {
          "internalType": "uint256",
          "name": "basePrice",
          "type": "uint256"
        },
        {
          "internalType": "string",
          "name": "title",
          "type": "string"
        },
        {
          "internalType": "string",
          "name": "description",
          "type": "string"
        },
        {
          "internalType": "string",
          "name": "imgUrl",
          "type": "string"
        },
        {
          "internalType": "uint256",
          "name": "highestBid",
          "type": "uint256"
        },
        {
          "internalType": "address",
          "name": "highestBidder",
          "type": "address"
        },
        {
          "internalType": "bool",
          "name": "available",
          "type": "bool"
        }
      ],
      "stateMutability": "view",
      "type": "function",
      "constant": true
    },
    {
      "inputs": [
        {
          "internalType": "uint256",
          "name": "",
          "type": "uint256"
        }
      ],
      "name": "idList",
      "outputs": [
        {
          "internalType": "uint256",
          "name": "",
          "type": "uint256"
        }
      ],
      "stateMutability": "view",
      "type": "function",
      "constant": true
    },
    {
      "inputs": [
        {
          "internalType": "uint256",
          "name": "_basePrice",
          "type": "uint256"
        },
        {
          "internalType": "string",
          "name": "_title",
          "type": "string"
        },
        {
          "internalType": "string",
          "name": "_description",
          "type": "string"
        },
        {
          "internalType": "string",
          "name": "_imgUrl",
          "type": "string"
        }
      ],
      "name": "addItem",
      "outputs": [],
      "stateMutability": "nonpayable",
      "type": "function"
    },
    {
      "inputs": [],
      "name": "get",
      "outputs": [
        {
          "components": [
            {
              "internalType": "uint256",
              "name": "itemId",
              "type": "uint256"
            },
            {
              "internalType": "uint256",
              "name": "basePrice",
              "type": "uint256"
            },
            {
              "internalType": "string",
              "name": "title",
              "type": "string"
            },
            {
              "internalType": "string",
              "name": "description",
              "type": "string"
            },
            {
              "internalType": "string",
              "name": "imgUrl",
              "type": "string"
            },
            {
              "internalType": "uint256",
              "name": "highestBid",
              "type": "uint256"
            },
            {
              "internalType": "address",
              "name": "highestBidder",
              "type": "address"
            },
            {
              "internalType": "bool",
              "name": "available",
              "type": "bool"
            }
          ],
          "internalType": "struct Auction.Item[]",
          "name": "",
          "type": "tuple[]"
        }
      ],
      "stateMutability": "view",
      "type": "function",
      "constant": true
    },
    {
      "inputs": [
        {
          "internalType": "uint256",
          "name": "itemId",
          "type": "uint256"
        },
        {
          "internalType": "uint256",
          "name": "amount",
          "type": "uint256"
        }
      ],
      "name": "bid",
      "outputs": [],
      "stateMutability": "nonpayable",
      "type": "function"
    }
  ],
  "bytecode": "0x60806040526064600255600060035534801561001a57600080fd5b506113cc8061002a6000396000f3fe608060405234801561001057600080fd5b50600436106100575760003560e01c80631e0d95601461005c578063598647f8146100935780636313531f146100af5780636d4ce63c146100df578063da03e922146100fd575b600080fd5b61007660048036038101906100719190610ad6565b610119565b60405161008a989796959493929190610c07565b60405180910390f35b6100ad60048036038101906100a89190610c9a565b610326565b005b6100c960048036038101906100c49190610ad6565b610455565b6040516100d69190610cda565b60405180910390f35b6100e7610479565b6040516100f49190610eec565b60405180910390f35b61011760048036038101906101129190611043565b61079d565b005b60056020528060005260406000206000915090508060000154908060010154908060020180546101489061112d565b80601f01602080910402602001604051908101604052809291908181526020018280546101749061112d565b80156101c15780601f10610196576101008083540402835291602001916101c1565b820191906000526020600020905b8154815290600101906020018083116101a457829003601f168201915b5050505050908060030180546101d69061112d565b80601f01602080910402602001604051908101604052809291908181526020018280546102029061112d565b801561024f5780601f106102245761010080835404028352916020019161024f565b820191906000526020600020905b81548152906001019060200180831161023257829003601f168201915b5050505050908060040180546102649061112d565b80601f01602080910402602001604051908101604052809291908181526020018280546102909061112d565b80156102dd5780601f106102b2576101008083540402835291602001916102dd565b820191906000526020600020905b8154815290600101906020018083116102c057829003601f168201915b5050505050908060050154908060060160009054906101000a900473ffffffffffffffffffffffffffffffffffffffff16908060060160149054906101000a900460ff16905088565b6005600083815260200190815260200160002060060160149054906101000a900460ff16610389576040517f08c379a0000000000000000000000000000000000000000000000000000000008152600401610380906111d1565b60405180910390fd5b806005600084815260200190815260200160002060050181905550336005600084815260200190815260200160002060060160006101000a81548173ffffffffffffffffffffffffffffffffffffffff021916908373ffffffffffffffffffffffffffffffffffffffff160217905550806005600084815260200190815260200160002060020160405161041d9190611290565b60405180910390207ffbd64afcd473d0fdba4e37c580ca7bcefee8aab9b4c0f15c00a33c667ea4f57360405160405180910390a35050565b6004818154811061046557600080fd5b906000526020600020016000915090505481565b6060600060035467ffffffffffffffff81111561049957610498610f18565b5b6040519080825280602002602001820160405280156104d257816020015b6104bf61098c565b8152602001906001900390816104b75790505b50905060005b6003548110156107955760056000600483815481106104fa576104f96112a7565b5b906000526020600020015481526020019081526020016000206040518061010001604052908160008201548152602001600182015481526020016002820180546105439061112d565b80601f016020809104026020016040519081016040528092919081815260200182805461056f9061112d565b80156105bc5780601f10610591576101008083540402835291602001916105bc565b820191906000526020600020905b81548152906001019060200180831161059f57829003601f168201915b505050505081526020016003820180546105d59061112d565b80601f01602080910402602001604051908101604052809291908181526020018280546106019061112d565b801561064e5780601f106106235761010080835404028352916020019161064e565b820191906000526020600020905b81548152906001019060200180831161063157829003601f168201915b505050505081526020016004820180546106679061112d565b80601f01602080910402602001604051908101604052809291908181526020018280546106939061112d565b80156106e05780601f106106b5576101008083540402835291602001916106e0565b820191906000526020600020905b8154815290600101906020018083116106c357829003601f168201915b50505050508152602001600582015481526020016006820160009054906101000a900473ffffffffffffffffffffffffffffffffffffffff1673ffffffffffffffffffffffffffffffffffffffff1673ffffffffffffffffffffffffffffffffffffffff1681526020016006820160149054906101000a900460ff161515151581525050828281518110610777576107766112a7565b5b6020026020010181905250808061078d90611305565b9150506104d8565b508091505090565b604051806101000160405280600254815260200185815260200184815260200183815260200182815260200160008152602001600073ffffffffffffffffffffffffffffffffffffffff16815260200160011515815250600560006002548152602001908152602001600020600082015181600001556020820151816001015560408201518160020190805190602001906108399291906109e9565b5060608201518160030190805190602001906108569291906109e9565b5060808201518160040190805190602001906108739291906109e9565b5060a0820151816005015560c08201518160060160006101000a81548173ffffffffffffffffffffffffffffffffffffffff021916908373ffffffffffffffffffffffffffffffffffffffff16021790555060e08201518160060160146101000a81548160ff021916908315150217905550905050600460025490806001815401808255809150506001900390600052602060002001600090919091909150556003600081548092919061092690611305565b91905055506002600081548092919061093e90611305565b91905055508383604051610952919061137f565b60405180910390207fa3008ce4b5fd9539afdacadda2ae83ce09bdb49c9cf373eda63954cbca6edbae60405160405180910390a350505050565b604051806101000160405280600081526020016000815260200160608152602001606081526020016060815260200160008152602001600073ffffffffffffffffffffffffffffffffffffffff1681526020016000151581525090565b8280546109f59061112d565b90600052602060002090601f016020900481019282610a175760008555610a5e565b82601f10610a3057805160ff1916838001178555610a5e565b82800160010185558215610a5e579182015b82811115610a5d578251825591602001919060010190610a42565b5b509050610a6b9190610a6f565b5090565b5b80821115610a88576000816000905550600101610a70565b5090565b6000604051905090565b600080fd5b600080fd5b6000819050919050565b610ab381610aa0565b8114610abe57600080fd5b50565b600081359050610ad081610aaa565b92915050565b600060208284031215610aec57610aeb610a96565b5b6000610afa84828501610ac1565b91505092915050565b610b0c81610aa0565b82525050565b600081519050919050565b600082825260208201905092915050565b60005b83811015610b4c578082015181840152602081019050610b31565b83811115610b5b576000848401525b50505050565b6000601f19601f8301169050919050565b6000610b7d82610b12565b610b878185610b1d565b9350610b97818560208601610b2e565b610ba081610b61565b840191505092915050565b600073ffffffffffffffffffffffffffffffffffffffff82169050919050565b6000610bd682610bab565b9050919050565b610be681610bcb565b82525050565b60008115159050919050565b610c0181610bec565b82525050565b600061010082019050610c1d600083018b610b03565b610c2a602083018a610b03565b8181036040830152610c3c8189610b72565b90508181036060830152610c508188610b72565b90508181036080830152610c648187610b72565b9050610c7360a0830186610b03565b610c8060c0830185610bdd565b610c8d60e0830184610bf8565b9998505050505050505050565b60008060408385031215610cb157610cb0610a96565b5b6000610cbf85828601610ac1565b9250506020610cd085828601610ac1565b9150509250929050565b6000602082019050610cef6000830184610b03565b92915050565b600081519050919050565b600082825260208201905092915050565b6000819050602082019050919050565b610d2a81610aa0565b82525050565b600082825260208201905092915050565b6000610d4c82610b12565b610d568185610d30565b9350610d66818560208601610b2e565b610d6f81610b61565b840191505092915050565b610d8381610bcb565b82525050565b610d9281610bec565b82525050565b600061010083016000830151610db16000860182610d21565b506020830151610dc46020860182610d21565b5060408301518482036040860152610ddc8282610d41565b91505060608301518482036060860152610df68282610d41565b91505060808301518482036080860152610e108282610d41565b91505060a0830151610e2560a0860182610d21565b5060c0830151610e3860c0860182610d7a565b5060e0830151610e4b60e0860182610d89565b508091505092915050565b6000610e628383610d98565b905092915050565b6000602082019050919050565b6000610e8282610cf5565b610e8c8185610d00565b935083602082028501610e9e85610d11565b8060005b85811015610eda5784840389528151610ebb8582610e56565b9450610ec683610e6a565b925060208a01995050600181019050610ea2565b50829750879550505050505092915050565b60006020820190508181036000830152610f068184610e77565b905092915050565b600080fd5b600080fd5b7f4e487b7100000000000000000000000000000000000000000000000000000000600052604160045260246000fd5b610f5082610b61565b810181811067ffffffffffffffff82111715610f6f57610f6e610f18565b5b80604052505050565b6000610f82610a8c565b9050610f8e8282610f47565b919050565b600067ffffffffffffffff821115610fae57610fad610f18565b5b610fb782610b61565b9050602081019050919050565b82818337600083830152505050565b6000610fe6610fe184610f93565b610f78565b90508281526020810184848401111561100257611001610f13565b5b61100d848285610fc4565b509392505050565b600082601f83011261102a57611029610f0e565b5b813561103a848260208601610fd3565b91505092915050565b6000806000806080858703121561105d5761105c610a96565b5b600061106b87828801610ac1565b945050602085013567ffffffffffffffff81111561108c5761108b610a9b565b5b61109887828801611015565b935050604085013567ffffffffffffffff8111156110b9576110b8610a9b565b5b6110c587828801611015565b925050606085013567ffffffffffffffff8111156110e6576110e5610a9b565b5b6110f287828801611015565b91505092959194509250565b7f4e487b7100000000000000000000000000000000000000000000000000000000600052602260045260246000fd5b6000600282049050600182168061114557607f821691505b60208210811415611159576111586110fe565b5b50919050565b7f4974656d20646f6573206e6f74206578697374206f72206973206e6f7420617060008201527f706c696361626c6520666f722062696464696e672e0000000000000000000000602082015250565b60006111bb603583610b1d565b91506111c68261115f565b604082019050919050565b600060208201905081810360008301526111ea816111ae565b9050919050565b600081905092915050565b60008190508160005260206000209050919050565b6000815461121e8161112d565b61122881866111f1565b94506001821660008114611243576001811461125457611287565b60ff19831686528186019350611287565b61125d856111fc565b60005b8381101561127f57815481890152600182019150602081019050611260565b838801955050505b50505092915050565b600061129c8284611211565b915081905092915050565b7f4e487b7100000000000000000000000000000000000000000000000000000000600052603260045260246000fd5b7f4e487b7100000000000000000000000000000000000000000000000000000000600052601160045260246000fd5b600061131082610aa0565b91507fffffffffffffffffffffffffffffffffffffffffffffffffffffffffffffffff821415611343576113426112d6565b5b600182019050919050565b600061135982610b12565b61136381856111f1565b9350611373818560208601610b2e565b80840191505092915050565b600061138b828461134e565b91508190509291505056fea2646970667358221220cd06f011071dc350a61dcd0aabc84e0fa40bf4df40127ef285b90b556e2d1df364736f6c634300080a0033",
  "immutableReferences": {},
  "source": "// SPDX-License-Identifier: MIT\npragma solidity >=0.4.22 <0.9.0;\n\ncontract Auction {\n    uint begins;\n    uint ends;\n    uint itemIdCounter = 100;\n    uint itemCount = 0;\n    uint[] public idList;\n\n    // Stored list of items available for aution\n    mapping(uint256 => Item) public catalogue;\n\n    struct Item {\n        uint itemId;\n        uint basePrice;\n        string title;\n        string description;\n        string imgUrl;\n        uint highestBid;\n        address highestBidder;\n        bool available;\n    }\n\n    constructor() {}\n\n    event LogItemAdded(string indexed title, uint indexed basePrice);\n    event LogBidPlaced(string indexed title, uint indexed amount);\n\n    function addItem(\n        uint _basePrice,\n        string memory _title,\n        string memory _description,\n        string memory _imgUrl\n    ) public {\n        catalogue[itemIdCounter] = Item({\n            itemId: itemIdCounter,\n            title: _title,\n            description: _description,\n            imgUrl: _imgUrl,\n            basePrice: _basePrice,\n            highestBid: 0,\n            highestBidder: address(0),\n            available: true\n        });\n        idList.push(itemIdCounter);\n        itemCount++;\n        itemIdCounter++;\n        emit LogItemAdded(_title, _basePrice);\n    }\n\n    function get() public view returns (Item[] memory) {\n        Item[] memory ret = new Item[](itemCount);\n        for (uint i = 0; i < itemCount; i++) {\n            ret[i] = catalogue[idList[i]];\n        }\n        return ret;\n    }\n\n    function bid(uint itemId, uint amount) public {\n        require(catalogue[itemId].available, \"Item does not exist or is not applicable for bidding.\");\n\n        catalogue[itemId].highestBid = amount;\n        catalogue[itemId].highestBidder = msg.sender;\n\n        emit LogBidPlaced(catalogue[itemId].title, amount);\n    }\n}\n",
  "sourcePath": "/home/hexx/Downloads/cbigold-develop/contracts/Auction.sol",
  "compiler": {
    "name": "solc",
    "version": "0.8.10+commit.fc410830.Emscripten.clang"
  },
  "schemaVersion": "3.4.4",
  "updatedAt": "2022-01-07T16:59:28.038Z",
  "networkType": "ethereum",
  "devdoc": {
    "kind": "dev",
    "methods": {},
    "version": 1
  },
  "userdoc": {
    "kind": "user",
    "methods": {},
    "version": 1
  }
}