{
  "contractName": "Auction",
  "abi": [
    {
      "inputs": [],
      "stateMutability": "nonpayable",
      "type": "constructor"
    },
    {
      "anonymous": false,
      "inputs": [
        {
          "indexed": true,
          "internalType": "uint256",
          "name": "itemId",
          "type": "uint256"
        },
        {
          "indexed": true,
          "internalType": "uint256",
          "name": "amount",
          "type": "uint256"
        }
      ],
      "name": "LogBidPlaced",
      "type": "event"
    },
    {
      "anonymous": false,
      "inputs": [
        {
          "indexed": true,
          "internalType": "string",
          "name": "title",
          "type": "string"
        },
        {
          "indexed": true,
          "internalType": "uint256",
          "name": "basePrice",
          "type": "uint256"
        }
      ],
      "name": "LogItemAdded",
      "type": "event"
    },
    {
      "anonymous": false,
      "inputs": [
        {
          "indexed": true,
          "internalType": "address",
          "name": "previousOwner",
          "type": "address"
        },
        {
          "indexed": true,
          "internalType": "address",
          "name": "newOwner",
          "type": "address"
        }
      ],
      "name": "OwnershipTransferred",
      "type": "event"
    },
    {
      "inputs": [
        {
          "internalType": "uint256",
          "name": "",
          "type": "uint256"
        }
      ],
      "name": "catalogue",
      "outputs": [
        {
          "internalType": "uint256",
          "name": "itemId",
          "type": "uint256"
        },
        {
          "internalType": "uint256",
          "name": "basePrice",
          "type": "uint256"
        },
        {
          "internalType": "string",
          "name": "title",
          "type": "string"
        },
        {
          "internalType": "string",
          "name": "description",
          "type": "string"
        },
        {
          "internalType": "string",
          "name": "imgUrl",
          "type": "string"
        },
        {
          "internalType": "uint256",
          "name": "highestBid",
          "type": "uint256"
        },
        {
          "internalType": "address",
          "name": "highestBidder",
          "type": "address"
        },
        {
          "internalType": "bool",
          "name": "available",
          "type": "bool"
        }
      ],
      "stateMutability": "view",
      "type": "function",
      "constant": true
    },
    {
      "inputs": [
        {
          "internalType": "uint256",
          "name": "",
          "type": "uint256"
        }
      ],
      "name": "idList",
      "outputs": [
        {
          "internalType": "uint256",
          "name": "",
          "type": "uint256"
        }
      ],
      "stateMutability": "view",
      "type": "function",
      "constant": true
    },
    {
      "inputs": [],
      "name": "owner",
      "outputs": [
        {
          "internalType": "address",
          "name": "",
          "type": "address"
        }
      ],
      "stateMutability": "view",
      "type": "function",
      "constant": true
    },
    {
      "inputs": [],
      "name": "renounceOwnership",
      "outputs": [],
      "stateMutability": "nonpayable",
      "type": "function"
    },
    {
      "inputs": [
        {
          "internalType": "address",
          "name": "newOwner",
          "type": "address"
        }
      ],
      "name": "transferOwnership",
      "outputs": [],
      "stateMutability": "nonpayable",
      "type": "function"
    },
    {
      "inputs": [
        {
          "internalType": "uint256",
          "name": "_basePrice",
          "type": "uint256"
        },
        {
          "internalType": "string",
          "name": "_title",
          "type": "string"
        },
        {
          "internalType": "string",
          "name": "_description",
          "type": "string"
        },
        {
          "internalType": "string",
          "name": "_imgUrl",
          "type": "string"
        }
      ],
      "name": "addItem",
      "outputs": [],
      "stateMutability": "nonpayable",
      "type": "function"
    },
    {
      "inputs": [],
      "name": "get",
      "outputs": [
        {
          "components": [
            {
              "internalType": "uint256",
              "name": "itemId",
              "type": "uint256"
            },
            {
              "internalType": "uint256",
              "name": "basePrice",
              "type": "uint256"
            },
            {
              "internalType": "string",
              "name": "title",
              "type": "string"
            },
            {
              "internalType": "string",
              "name": "description",
              "type": "string"
            },
            {
              "internalType": "string",
              "name": "imgUrl",
              "type": "string"
            },
            {
              "internalType": "uint256",
              "name": "highestBid",
              "type": "uint256"
            },
            {
              "internalType": "address",
              "name": "highestBidder",
              "type": "address"
            },
            {
              "internalType": "bool",
              "name": "available",
              "type": "bool"
            }
          ],
          "internalType": "struct Auction.Item[]",
          "name": "",
          "type": "tuple[]"
        }
      ],
      "stateMutability": "view",
      "type": "function",
      "constant": true
    },
    {
      "inputs": [
        {
          "internalType": "uint256",
          "name": "itemId",
          "type": "uint256"
        },
        {
          "internalType": "uint256",
          "name": "amount",
          "type": "uint256"
        }
      ],
      "name": "bid",
      "outputs": [],
      "stateMutability": "nonpayable",
      "type": "function"
    }
  ],
  "bytecode": "0x60806040526064600355600060045534801561001a57600080fd5b5061003761002c61003c60201b60201c565b61004460201b60201c565b610108565b600033905090565b60008060009054906101000a900473ffffffffffffffffffffffffffffffffffffffff169050816000806101000a81548173ffffffffffffffffffffffffffffffffffffffff021916908373ffffffffffffffffffffffffffffffffffffffff1602179055508173ffffffffffffffffffffffffffffffffffffffff168173ffffffffffffffffffffffffffffffffffffffff167f8be0079c531659141344cd1fd0a4f28419497f9722a3daafe3b4186f6b6457e060405160405180910390a35050565b6119b9806101176000396000f3fe608060405234801561001057600080fd5b50600436106100885760003560e01c8063715018a61161005b578063715018a61461012e5780638da5cb5b14610138578063da03e92214610156578063f2fde38b1461017257610088565b80631e0d95601461008d578063598647f8146100c45780636313531f146100e05780636d4ce63c14610110575b600080fd5b6100a760048036038101906100a29190610ed8565b61018e565b6040516100bb989796959493929190611009565b60405180910390f35b6100de60048036038101906100d9919061109c565b61039b565b005b6100fa60048036038101906100f59190610ed8565b610566565b60405161010791906110dc565b60405180910390f35b61011861058a565b60405161012591906112ee565b60405180910390f35b6101366108ae565b005b610140610936565b60405161014d9190611310565b60405180910390f35b610170600480360381019061016b9190611460565b61095f565b005b61018c60048036038101906101879190611547565b610bca565b005b60066020528060005260406000206000915090508060000154908060010154908060020180546101bd906115a3565b80601f01602080910402602001604051908101604052809291908181526020018280546101e9906115a3565b80156102365780601f1061020b57610100808354040283529160200191610236565b820191906000526020600020905b81548152906001019060200180831161021957829003601f168201915b50505050509080600301805461024b906115a3565b80601f0160208091040260200160405190810160405280929190818152602001828054610277906115a3565b80156102c45780601f10610299576101008083540402835291602001916102c4565b820191906000526020600020905b8154815290600101906020018083116102a757829003601f168201915b5050505050908060040180546102d9906115a3565b80601f0160208091040260200160405190810160405280929190818152602001828054610305906115a3565b80156103525780601f1061032757610100808354040283529160200191610352565b820191906000526020600020905b81548152906001019060200180831161033557829003601f168201915b5050505050908060050154908060060160009054906101000a900473ffffffffffffffffffffffffffffffffffffffff16908060060160149054906101000a900460ff16905088565b6006600083815260200190815260200160002060060160149054906101000a900460ff166103fe576040517f08c379a00000000000000000000000000000000000000000000000000000000081526004016103f590611647565b60405180910390fd5b80600660008481526020019081526020016000206001015410610456576040517f08c379a000000000000000000000000000000000000000000000000000000000815260040161044d906116d9565b60405180910390fd5b806006600084815260200190815260200160002060050154106104ae576040517f08c379a00000000000000000000000000000000000000000000000000000000081526004016104a59061176b565b60405180910390fd5b806006600084815260200190815260200160002060050181905550336006600084815260200190815260200160002060060160006101000a81548173ffffffffffffffffffffffffffffffffffffffff021916908373ffffffffffffffffffffffffffffffffffffffff1602179055508060066000848152602001908152602001600020600001547fac0424a72a9284484a50922d5e29465a86a9bf3376f71284ce897bb1279a11fc60405160405180910390a35050565b6005818154811061057657600080fd5b906000526020600020016000915090505481565b6060600060045467ffffffffffffffff8111156105aa576105a9611335565b5b6040519080825280602002602001820160405280156105e357816020015b6105d0610d8e565b8152602001906001900390816105c85790505b50905060005b6004548110156108a657600660006005838154811061060b5761060a61178b565b5b90600052602060002001548152602001908152602001600020604051806101000160405290816000820154815260200160018201548152602001600282018054610654906115a3565b80601f0160208091040260200160405190810160405280929190818152602001828054610680906115a3565b80156106cd5780601f106106a2576101008083540402835291602001916106cd565b820191906000526020600020905b8154815290600101906020018083116106b057829003601f168201915b505050505081526020016003820180546106e6906115a3565b80601f0160208091040260200160405190810160405280929190818152602001828054610712906115a3565b801561075f5780601f106107345761010080835404028352916020019161075f565b820191906000526020600020905b81548152906001019060200180831161074257829003601f168201915b50505050508152602001600482018054610778906115a3565b80601f01602080910402602001604051908101604052809291908181526020018280546107a4906115a3565b80156107f15780601f106107c6576101008083540402835291602001916107f1565b820191906000526020600020905b8154815290600101906020018083116107d457829003601f168201915b50505050508152602001600582015481526020016006820160009054906101000a900473ffffffffffffffffffffffffffffffffffffffff1673ffffffffffffffffffffffffffffffffffffffff1673ffffffffffffffffffffffffffffffffffffffff1681526020016006820160149054906101000a900460ff1615151515815250508282815181106108885761088761178b565b5b6020026020010181905250808061089e906117e9565b9150506105e9565b508091505090565b6108b6610cc2565b73ffffffffffffffffffffffffffffffffffffffff166108d4610936565b73ffffffffffffffffffffffffffffffffffffffff161461092a576040517f08c379a00000000000000000000000000000000000000000000000000000000081526004016109219061187e565b60405180910390fd5b6109346000610cca565b565b60008060009054906101000a900473ffffffffffffffffffffffffffffffffffffffff16905090565b610967610cc2565b73ffffffffffffffffffffffffffffffffffffffff16610985610936565b73ffffffffffffffffffffffffffffffffffffffff16146109db576040517f08c379a00000000000000000000000000000000000000000000000000000000081526004016109d29061187e565b60405180910390fd5b604051806101000160405280600354815260200185815260200184815260200183815260200182815260200160008152602001600073ffffffffffffffffffffffffffffffffffffffff1681526020016001151581525060066000600354815260200190815260200160002060008201518160000155602082015181600101556040820151816002019080519060200190610a77929190610deb565b506060820151816003019080519060200190610a94929190610deb565b506080820151816004019080519060200190610ab1929190610deb565b5060a0820151816005015560c08201518160060160006101000a81548173ffffffffffffffffffffffffffffffffffffffff021916908373ffffffffffffffffffffffffffffffffffffffff16021790555060e08201518160060160146101000a81548160ff0219169083151502179055509050506005600354908060018154018082558091505060019003906000526020600020016000909190919091505560046000815480929190610b64906117e9565b919050555060036000815480929190610b7c906117e9565b91905055508383604051610b9091906118da565b60405180910390207fa3008ce4b5fd9539afdacadda2ae83ce09bdb49c9cf373eda63954cbca6edbae60405160405180910390a350505050565b610bd2610cc2565b73ffffffffffffffffffffffffffffffffffffffff16610bf0610936565b73ffffffffffffffffffffffffffffffffffffffff1614610c46576040517f08c379a0000000000000000000000000000000000000000000000000000000008152600401610c3d9061187e565b60405180910390fd5b600073ffffffffffffffffffffffffffffffffffffffff168173ffffffffffffffffffffffffffffffffffffffff161415610cb6576040517f08c379a0000000000000000000000000000000000000000000000000000000008152600401610cad90611963565b60405180910390fd5b610cbf81610cca565b50565b600033905090565b60008060009054906101000a900473ffffffffffffffffffffffffffffffffffffffff169050816000806101000a81548173ffffffffffffffffffffffffffffffffffffffff021916908373ffffffffffffffffffffffffffffffffffffffff1602179055508173ffffffffffffffffffffffffffffffffffffffff168173ffffffffffffffffffffffffffffffffffffffff167f8be0079c531659141344cd1fd0a4f28419497f9722a3daafe3b4186f6b6457e060405160405180910390a35050565b604051806101000160405280600081526020016000815260200160608152602001606081526020016060815260200160008152602001600073ffffffffffffffffffffffffffffffffffffffff1681526020016000151581525090565b828054610df7906115a3565b90600052602060002090601f016020900481019282610e195760008555610e60565b82601f10610e3257805160ff1916838001178555610e60565b82800160010185558215610e60579182015b82811115610e5f578251825591602001919060010190610e44565b5b509050610e6d9190610e71565b5090565b5b80821115610e8a576000816000905550600101610e72565b5090565b6000604051905090565b600080fd5b600080fd5b6000819050919050565b610eb581610ea2565b8114610ec057600080fd5b50565b600081359050610ed281610eac565b92915050565b600060208284031215610eee57610eed610e98565b5b6000610efc84828501610ec3565b91505092915050565b610f0e81610ea2565b82525050565b600081519050919050565b600082825260208201905092915050565b60005b83811015610f4e578082015181840152602081019050610f33565b83811115610f5d576000848401525b50505050565b6000601f19601f8301169050919050565b6000610f7f82610f14565b610f898185610f1f565b9350610f99818560208601610f30565b610fa281610f63565b840191505092915050565b600073ffffffffffffffffffffffffffffffffffffffff82169050919050565b6000610fd882610fad565b9050919050565b610fe881610fcd565b82525050565b60008115159050919050565b61100381610fee565b82525050565b60006101008201905061101f600083018b610f05565b61102c602083018a610f05565b818103604083015261103e8189610f74565b905081810360608301526110528188610f74565b905081810360808301526110668187610f74565b905061107560a0830186610f05565b61108260c0830185610fdf565b61108f60e0830184610ffa565b9998505050505050505050565b600080604083850312156110b3576110b2610e98565b5b60006110c185828601610ec3565b92505060206110d285828601610ec3565b9150509250929050565b60006020820190506110f16000830184610f05565b92915050565b600081519050919050565b600082825260208201905092915050565b6000819050602082019050919050565b61112c81610ea2565b82525050565b600082825260208201905092915050565b600061114e82610f14565b6111588185611132565b9350611168818560208601610f30565b61117181610f63565b840191505092915050565b61118581610fcd565b82525050565b61119481610fee565b82525050565b6000610100830160008301516111b36000860182611123565b5060208301516111c66020860182611123565b50604083015184820360408601526111de8282611143565b915050606083015184820360608601526111f88282611143565b915050608083015184820360808601526112128282611143565b91505060a083015161122760a0860182611123565b5060c083015161123a60c086018261117c565b5060e083015161124d60e086018261118b565b508091505092915050565b6000611264838361119a565b905092915050565b6000602082019050919050565b6000611284826110f7565b61128e8185611102565b9350836020820285016112a085611113565b8060005b858110156112dc57848403895281516112bd8582611258565b94506112c88361126c565b925060208a019950506001810190506112a4565b50829750879550505050505092915050565b600060208201905081810360008301526113088184611279565b905092915050565b60006020820190506113256000830184610fdf565b92915050565b600080fd5b600080fd5b7f4e487b7100000000000000000000000000000000000000000000000000000000600052604160045260246000fd5b61136d82610f63565b810181811067ffffffffffffffff8211171561138c5761138b611335565b5b80604052505050565b600061139f610e8e565b90506113ab8282611364565b919050565b600067ffffffffffffffff8211156113cb576113ca611335565b5b6113d482610f63565b9050602081019050919050565b82818337600083830152505050565b60006114036113fe846113b0565b611395565b90508281526020810184848401111561141f5761141e611330565b5b61142a8482856113e1565b509392505050565b600082601f8301126114475761144661132b565b5b81356114578482602086016113f0565b91505092915050565b6000806000806080858703121561147a57611479610e98565b5b600061148887828801610ec3565b945050602085013567ffffffffffffffff8111156114a9576114a8610e9d565b5b6114b587828801611432565b935050604085013567ffffffffffffffff8111156114d6576114d5610e9d565b5b6114e287828801611432565b925050606085013567ffffffffffffffff81111561150357611502610e9d565b5b61150f87828801611432565b91505092959194509250565b61152481610fcd565b811461152f57600080fd5b50565b6000813590506115418161151b565b92915050565b60006020828403121561155d5761155c610e98565b5b600061156b84828501611532565b91505092915050565b7f4e487b7100000000000000000000000000000000000000000000000000000000600052602260045260246000fd5b600060028204905060018216806115bb57607f821691505b602082108114156115cf576115ce611574565b5b50919050565b7f4974656d20646f6573206e6f74206578697374206f72206973206e6f7420617060008201527f706c696361626c6520666f722062696464696e672e0000000000000000000000602082015250565b6000611631603583610f1f565b915061163c826115d5565b604082019050919050565b6000602082019050818103600083015261166081611624565b9050919050565b7f4269642073686f756c6420626520686967686572207468616e2062617365206160008201527f6d6f756e742e0000000000000000000000000000000000000000000000000000602082015250565b60006116c3602683610f1f565b91506116ce82611667565b604082019050919050565b600060208201905081810360008301526116f2816116b6565b9050919050565b7f4269642073686f756c6420626520686967686572207468616e2070726576696f60008201527f75732e0000000000000000000000000000000000000000000000000000000000602082015250565b6000611755602383610f1f565b9150611760826116f9565b604082019050919050565b6000602082019050818103600083015261178481611748565b9050919050565b7f4e487b7100000000000000000000000000000000000000000000000000000000600052603260045260246000fd5b7f4e487b7100000000000000000000000000000000000000000000000000000000600052601160045260246000fd5b60006117f482610ea2565b91507fffffffffffffffffffffffffffffffffffffffffffffffffffffffffffffffff821415611827576118266117ba565b5b600182019050919050565b7f4f776e61626c653a2063616c6c6572206973206e6f7420746865206f776e6572600082015250565b6000611868602083610f1f565b915061187382611832565b602082019050919050565b600060208201905081810360008301526118978161185b565b9050919050565b600081905092915050565b60006118b482610f14565b6118be818561189e565b93506118ce818560208601610f30565b80840191505092915050565b60006118e682846118a9565b915081905092915050565b7f4f776e61626c653a206e6577206f776e657220697320746865207a65726f206160008201527f6464726573730000000000000000000000000000000000000000000000000000602082015250565b600061194d602683610f1f565b9150611958826118f1565b604082019050919050565b6000602082019050818103600083015261197c81611940565b905091905056fea2646970667358221220013c3cb504202bef4fca34d026ba4e437824ae4469314ffa2f3f6f8bc5589e5964736f6c634300080a0033",
  "immutableReferences": {},
  "source": "// SPDX-License-Identifier: MIT\npragma solidity 0.8.10;\nimport \"@openzeppelin/contracts/access/Ownable.sol\";\n\n\n/// @title An auction management contract\n/// @author Pelema A. \n/// @notice This is still experimental, not  for production\ncontract Auction is Ownable {\n    uint begins;\n    uint ends;\n    uint itemIdCounter = 100;\n    uint itemCount = 0;\n    uint[] public idList;\n\n    // Stored list of items available for aution\n    mapping(uint256 => Item) public catalogue;\n    struct Item {\n        uint itemId;\n        uint basePrice;\n        string title;\n        string description;\n        string imgUrl;\n        uint highestBid;\n        address highestBidder;\n        bool available;\n    }\n\n    constructor() {}\n\n    event LogItemAdded(string indexed title, uint indexed basePrice);\n    event LogBidPlaced(uint indexed itemId, uint indexed amount);\n\n    /// @param _basePrice Lowest amount to bid\n    function addItem(\n        uint _basePrice,\n        string memory _title,\n        string memory _description,\n        string memory _imgUrl\n    ) public onlyOwner {\n        catalogue[itemIdCounter] = Item({\n            itemId: itemIdCounter,\n            title: _title,\n            description: _description,\n            imgUrl: _imgUrl,\n            basePrice: _basePrice,\n            highestBid: 0,\n            highestBidder: address(0),\n            available: true\n        });\n        idList.push(itemIdCounter);\n        itemCount++;\n        itemIdCounter++;\n        emit LogItemAdded(_title, _basePrice);\n    }\n\n    function get() public view returns (Item[] memory) {\n        Item[] memory ret = new Item[](itemCount);\n        for (uint i = 0; i < itemCount; i++) {\n            ret[i] = catalogue[idList[i]];\n        }\n        return ret;\n    }\n\n    function bid(uint itemId, uint amount) public {\n        // require(!isOwner(msg.sender));\n        require(catalogue[itemId].available, \"Item does not exist or is not applicable for bidding.\");\n        require(catalogue[itemId].basePrice < amount, \"Bid should be higher than base amount.\");\n        require(catalogue[itemId].highestBid < amount, \"Bid should be higher than previous.\");\n\n        catalogue[itemId].highestBid = amount;\n        catalogue[itemId].highestBidder = msg.sender;\n\n        emit LogBidPlaced(catalogue[itemId].itemId, amount);\n    }\n}\n",
  "sourcePath": "/home/hexx/Desktop/blockchain-developer-bootcamp-final-project/contracts/Auction.sol",
  "compiler": {
    "name": "solc",
    "version": "0.8.10+commit.fc410830.Emscripten.clang"
  },
  "schemaVersion": "3.4.4",
  "updatedAt": "2022-01-13T10:54:25.447Z",
  "networkType": "ethereum",
  "devdoc": {
    "author": "Pelema A. ",
    "kind": "dev",
    "methods": {
      "addItem(uint256,string,string,string)": {
        "params": {
          "_basePrice": "Lowest amount to bid"
        }
      },
      "owner()": {
        "details": "Returns the address of the current owner."
      },
      "renounceOwnership()": {
        "details": "Leaves the contract without owner. It will not be possible to call `onlyOwner` functions anymore. Can only be called by the current owner. NOTE: Renouncing ownership will leave the contract without an owner, thereby removing any functionality that is only available to the owner."
      },
      "transferOwnership(address)": {
        "details": "Transfers ownership of the contract to a new account (`newOwner`). Can only be called by the current owner."
      }
    },
    "title": "An auction management contract",
    "version": 1
  },
  "userdoc": {
    "kind": "user",
    "methods": {},
    "notice": "This is still experimental, not  for production",
    "version": 1
  }
}